{
  "contractName": "MyContract",
  "abi": [
    {
      "anonymous": false,
      "inputs": [
        {
          "indexed": false,
          "name": "name",
          "type": "string"
        },
        {
          "indexed": false,
          "name": "age",
          "type": "uint256"
        }
      ],
      "name": "MyEvent",
      "type": "event"
    },
    {
      "constant": false,
      "inputs": [
        {
          "name": "_x",
          "type": "string"
        },
        {
          "name": "_y",
          "type": "uint256"
        }
      ],
      "name": "setVar",
      "outputs": [],
      "payable": false,
      "stateMutability": "nonpayable",
      "type": "function"
    },
    {
      "constant": true,
      "inputs": [],
      "name": "getVar",
      "outputs": [
        {
          "name": "",
          "type": "string"
        },
        {
          "name": "",
          "type": "uint256"
        }
      ],
      "payable": false,
      "stateMutability": "view",
      "type": "function"
    }
  ],
  "bytecode": "0x608060405234801561001057600080fd5b50610387806100206000396000f30060806040526004361061004b5763ffffffff7c0100000000000000000000000000000000000000000000000000000000600035041663477a5c9881146100505780637cb39ff9146100e4575b600080fd5b34801561005c57600080fd5b50610065610141565b6040518080602001838152602001828103825284818151815260200191508051906020019080838360005b838110156100a8578181015183820152602001610090565b50505050905090810190601f1680156100d55780820380516001836020036101000a031916815260200191505b50935050505060405180910390f35b3480156100f057600080fd5b506040805160206004803580820135601f810184900484028501840190955284845261013f94369492936024939284019190819084018382808284375094975050933594506101ed9350505050565b005b6060600080600154818054600181600116156101000203166002900480601f0160208091040260200160405190810160405280929190818152602001828054600181600116156101000203166002900480156101de5780601f106101b3576101008083540402835291602001916101de565b820191906000526020600020905b8154815290600101906020018083116101c157829003601f168201915b50505050509150915091509091565b81516102009060009060208501906102c0565b506001818155604080516020810184905281815260008054600294811615610100026000190116939093049181018290527f417b479eab59fa49bedfbbb7cab907b3a81d8375cfca57da274a3d8b6c61a813929184919081906060820190859080156102ad5780601f10610282576101008083540402835291602001916102ad565b820191906000526020600020905b81548152906001019060200180831161029057829003601f168201915b5050935050505060405180910390a15050565b828054600181600116156101000203166002900490600052602060002090601f016020900481019282601f1061030157805160ff191683800117855561032e565b8280016001018555821561032e579182015b8281111561032e578251825591602001919060010190610313565b5061033a92915061033e565b5090565b61035891905b8082111561033a5760008155600101610344565b905600a165627a7a72305820b655cfcf59407941242adb668899134fc5cad198aeb2951480625116a03e248e0029",
  "source": "pragma solidity ^0.4.23;\r\ncontract MyContract{\r\n  string fName; uint age;\r\n  event MyEvent(string name,uint age);\r\n  function setVar(string _x,uint _y) public {\r\n    fName = _x; age = _y;\r\n    emit MyEvent(fName,age);\r\n     }\r\n\r\n      function getVar() public view returns(string,uint) {\r\n\r\n         return(fName,age);\r\n         }\r\n        }\r\n",
  "sourcePath": "C:\\Users\\Neeta\\NeetaSolidity\\contracts\\MyContract.sol",
  "compiler": {
    "name": "solc",
    "version": "0.4.24+commit.e67f0147.Emscripten.clang"
  },
  "schemaVersion": "2.0.0",
  "updatedAt": "2018-06-11T17:25:38.571Z"
}